{
  "contractName": "PictureLikeSystem",
  "abi": [
    {
      "inputs": [],
      "payable": false,
      "stateMutability": "nonpayable",
      "type": "constructor"
    },
    {
      "anonymous": false,
      "inputs": [
        {
          "indexed": true,
          "internalType": "uint256",
          "name": "_pictureId",
          "type": "uint256"
        }
      ],
      "name": "likedEvent",
      "type": "event"
    },
    {
      "constant": true,
      "inputs": [
        {
          "internalType": "uint256",
          "name": "",
          "type": "uint256"
        }
      ],
      "name": "pictures",
      "outputs": [
        {
          "internalType": "uint256",
          "name": "id",
          "type": "uint256"
        },
        {
          "internalType": "string",
          "name": "name",
          "type": "string"
        },
        {
          "internalType": "uint256",
          "name": "likeCount",
          "type": "uint256"
        }
      ],
      "payable": false,
      "stateMutability": "view",
      "type": "function"
    },
    {
      "constant": true,
      "inputs": [],
      "name": "picturesCount",
      "outputs": [
        {
          "internalType": "uint256",
          "name": "",
          "type": "uint256"
        }
      ],
      "payable": false,
      "stateMutability": "view",
      "type": "function"
    },
    {
      "constant": true,
      "inputs": [
        {
          "internalType": "address",
          "name": "",
          "type": "address"
        }
      ],
      "name": "users",
      "outputs": [
        {
          "internalType": "bool",
          "name": "",
          "type": "bool"
        }
      ],
      "payable": false,
      "stateMutability": "view",
      "type": "function"
    },
    {
      "constant": false,
      "inputs": [
        {
          "internalType": "uint256",
          "name": "_pictureId",
          "type": "uint256"
        }
      ],
      "name": "like",
      "outputs": [],
      "payable": false,
      "stateMutability": "nonpayable",
      "type": "function"
    }
  ],
  "bytecode": "0x60806040526002805534801561001457600080fd5b506040518060600160405280600181526020016040518060400160405280600981526020017f50696374757265203100000000000000000000000000000000000000000000008152508152602001600081525060016000600181526020019081526020016000206000820151816000015560208201518160010190805190602001906100a192919061014e565b50604082015181600201559050506040518060600160405280600281526020016040518060400160405280600981526020017f506963747572652032000000000000000000000000000000000000000000000081525081526020016000815250600160006002815260200190815260200160002060008201518160000155602082015181600101908051906020019061013b92919061014e565b50604082015181600201559050506101f3565b828054600181600116156101000203166002900490600052602060002090601f016020900481019282601f1061018f57805160ff19168380011785556101bd565b828001600101855582156101bd579182015b828111156101bc5782518255916020019190600101906101a1565b5b5090506101ca91906101ce565b5090565b6101f091905b808211156101ec5760008160009055506001016101d4565b5090565b90565b6103ce806102026000396000f3fe608060405234801561001057600080fd5b506004361061004c5760003560e01c806319f1a5f8146100515780634a2911421461006f578063a87430ba14610124578063e82935da14610180575b600080fd5b6100596101ae565b6040518082815260200191505060405180910390f35b61009b6004803603602081101561008557600080fd5b81019080803590602001909291905050506101b4565b6040518084815260200180602001838152602001828103825284818151815260200191508051906020019080838360005b838110156100e75780820151818401526020810190506100cc565b50505050905090810190601f1680156101145780820380516001836020036101000a031916815260200191505b5094505050505060405180910390f35b6101666004803603602081101561013a57600080fd5b81019080803573ffffffffffffffffffffffffffffffffffffffff169060200190929190505050610276565b604051808215151515815260200191505060405180910390f35b6101ac6004803603602081101561019657600080fd5b8101908080359060200190929190505050610296565b005b60025481565b6001602052806000526040600020600091509050806000015490806001018054600181600116156101000203166002900480601f0160208091040260200160405190810160405280929190818152602001828054600181600116156101000203166002900480156102665780601f1061023b57610100808354040283529160200191610266565b820191906000526020600020905b81548152906001019060200180831161024957829003601f168201915b5050505050908060020154905083565b60006020528060005260406000206000915054906101000a900460ff1681565b6000803373ffffffffffffffffffffffffffffffffffffffff1673ffffffffffffffffffffffffffffffffffffffff16815260200190815260200160002060009054906101000a900460ff16156102ec57600080fd5b60016000803373ffffffffffffffffffffffffffffffffffffffff1673ffffffffffffffffffffffffffffffffffffffff16815260200190815260200160002060006101000a81548160ff0219169083151502179055506001600082815260200190815260200160002060020160008154809291906001019190505550807f7cf08331c0ef0050750b5de6bebbc5658a7d0308a2558f4e7f47dd0e6c782c2460405160405180910390a25056fea265627a7a7231582018ed97f9948b764991d578c8a9e48a5afc16d0771237926b239a3028827212b164736f6c63430005100032",
  "source": "pragma solidity 0.5.16;\n\ncontract PictureLikeSystem {\n    // Struct that represents a Picture\n    struct Picture {\n        uint256 id;\n        string name;\n        uint256 likeCount;\n    }\n\n    // Mapping for users that have voted\n    mapping(address => bool) public users;\n    // Mapping fot pictures\n\n    mapping(uint256 => Picture) public pictures;\n\n    // Store pictures Count\n    uint256 public picturesCount = 2;\n    // Event to notify of user voting\n\n    event likedEvent(uint256 indexed _pictureId);\n\n    // Constructor to create two pictures in its deployment\n    constructor() public {\n        pictures[1] = Picture(1, \"Picture 1\", 0);\n        pictures[2] = Picture(2, \"Picture 2\", 0);\n    }\n\n    // Like function\n    function like(uint256 _pictureId) public {\n        // require that users haven't voted before\n        require(!users[msg.sender]);\n        // likers only can vote once\n        users[msg.sender] = true;\n        // update picture like Count\n        pictures[_pictureId].likeCount++;\n        // trigger liked event\n        emit likedEvent(_pictureId);\n    }\n}\n",
  "sourcePath": "/Users/cesrc/workspace/uem-dapp-example/contracts/PictureLikeSystem.sol",
  "compiler": {
    "name": "solc",
    "version": "0.5.16+commit.9c3226ce.Emscripten.clang"
  },
  "schemaVersion": "3.4.3",
  "updatedAt": "2021-09-02T08:36:20.722Z",
  "networkType": "ethereum",
  "devdoc": {
    "methods": {}
  },
  "userdoc": {
    "methods": {}
  }
}